{
  "contractName": "BCSVoting",
  "abi": [
    {
      "inputs": [],
      "stateMutability": "nonpayable",
      "type": "constructor"
    },
    {
      "inputs": [],
      "name": "MAX_CANDIDATES",
      "outputs": [
        {
          "internalType": "uint256",
          "name": "",
          "type": "uint256"
        }
      ],
      "stateMutability": "view",
      "type": "function"
    },
    {
      "inputs": [],
      "name": "MIN_VOTE_POSTING_TIME",
      "outputs": [
        {
          "internalType": "uint256",
          "name": "",
          "type": "uint256"
        }
      ],
      "stateMutability": "view",
      "type": "function"
    },
    {
      "inputs": [],
      "name": "MIN_VOTING_PERIOD",
      "outputs": [
        {
          "internalType": "uint256",
          "name": "",
          "type": "uint256"
        }
      ],
      "stateMutability": "view",
      "type": "function"
    },
    {
      "inputs": [
        {
          "internalType": "uint256",
          "name": "",
          "type": "uint256"
        }
      ],
      "name": "candidates",
      "outputs": [
        {
          "internalType": "string",
          "name": "name",
          "type": "string"
        },
        {
          "internalType": "uint256",
          "name": "voteCount",
          "type": "uint256"
        }
      ],
      "stateMutability": "view",
      "type": "function"
    },
    {
      "inputs": [],
      "name": "endTime",
      "outputs": [
        {
          "internalType": "uint256",
          "name": "",
          "type": "uint256"
        }
      ],
      "stateMutability": "view",
      "type": "function"
    },
    {
      "inputs": [],
      "name": "owner",
      "outputs": [
        {
          "internalType": "address",
          "name": "",
          "type": "address"
        }
      ],
      "stateMutability": "view",
      "type": "function"
    },
    {
      "inputs": [],
      "name": "startTime",
      "outputs": [
        {
          "internalType": "uint256",
          "name": "",
          "type": "uint256"
        }
      ],
      "stateMutability": "view",
      "type": "function"
    },
    {
      "inputs": [],
      "name": "state",
      "outputs": [
        {
          "internalType": "enum BCSVoting.State",
          "name": "",
          "type": "uint8"
        }
      ],
      "stateMutability": "view",
      "type": "function"
    },
    {
      "inputs": [
        {
          "internalType": "uint256",
          "name": "",
          "type": "uint256"
        }
      ],
      "name": "voters",
      "outputs": [
        {
          "internalType": "address",
          "name": "addr",
          "type": "address"
        },
        {
          "internalType": "bool",
          "name": "hasVoted",
          "type": "bool"
        }
      ],
      "stateMutability": "view",
      "type": "function"
    },
    {
      "inputs": [
        {
          "internalType": "string",
          "name": "_name",
          "type": "string"
        }
      ],
      "name": "addCandidate",
      "outputs": [],
      "stateMutability": "nonpayable",
      "type": "function"
    },
    {
      "inputs": [
        {
          "internalType": "uint256",
          "name": "_startTime",
          "type": "uint256"
        },
        {
          "internalType": "uint256",
          "name": "_endTime",
          "type": "uint256"
        }
      ],
      "name": "startVoting",
      "outputs": [],
      "stateMutability": "nonpayable",
      "type": "function"
    },
    {
      "inputs": [
        {
          "internalType": "uint256",
          "name": "_candidateId",
          "type": "uint256"
        },
        {
          "internalType": "uint256[2]",
          "name": "_proofa",
          "type": "uint256[2]"
        },
        {
          "internalType": "uint256[2][2]",
          "name": "_proofb",
          "type": "uint256[2][2]"
        },
        {
          "internalType": "uint256[2]",
          "name": "_proofc",
          "type": "uint256[2]"
        },
        {
          "internalType": "uint256[]",
          "name": "_input",
          "type": "uint256[]"
        }
      ],
      "name": "vote",
      "outputs": [],
      "stateMutability": "nonpayable",
      "type": "function"
    },
    {
      "inputs": [],
      "name": "finalize",
      "outputs": [],
      "stateMutability": "nonpayable",
      "type": "function"
    },
    {
      "inputs": [
        {
          "internalType": "uint256",
          "name": "_candidateId",
          "type": "uint256"
        }
      ],
      "name": "getVoteCount",
      "outputs": [
        {
          "internalType": "uint256",
          "name": "",
          "type": "uint256"
        }
      ],
      "stateMutability": "view",
      "type": "function"
    },
    {
      "inputs": [],
      "name": "getTotalVoteCount",
      "outputs": [
        {
          "internalType": "uint256",
          "name": "",
          "type": "uint256"
        }
      ],
      "stateMutability": "view",
      "type": "function"
    }
  ],
  "bytecode": "0x608060405234801561001057600080fd5b5033600660006101000a81548173ffffffffffffffffffffffffffffffffffffffff021916908373ffffffffffffffffffffffffffffffffffffffff1602179055506000600160146101000a81548160ff0219169083600381111561007857610077610082565b5b02179055506100b1565b7f4e487b7100000000000000000000000000000000000000000000000000000000600052602160045260246000fd5b6128b680620000c16000396000f3fe608060405234801561001057600080fd5b50600436106100f55760003560e01c806378e9792511610097578063c19d93fb11610066578063c19d93fb1461024f578063da58c7d91461026d578063ead43c861461029e578063f0786096146102bc576100f5565b806378e97925146101c75780638da5cb5b146101e557806390fe560914610203578063b2c2f2e81461021f576100f5565b80633197cbb6116100d35780633197cbb6146101525780633477ee2e14610170578063462e91ec146101a15780634bb278f3146101bd576100f5565b8063215809ca146100fa57806327813aed14610118578063288c72e814610134575b600080fd5b6101026102da565b60405161010f91906110ac565b60405180910390f35b610132600480360381019061012d91906113c2565b6102ed565b005b61013c610761565b60405161014991906110ac565b60405180910390f35b61015a6107c6565b60405161016791906110ac565b60405180910390f35b61018a6004803603810190610185919061145b565b6107cc565b604051610198929190611507565b60405180910390f35b6101bb60048036038101906101b691906115ec565b610888565b005b6101c5610a80565b005b6101cf610bf7565b6040516101dc91906110ac565b60405180910390f35b6101ed610bfd565b6040516101fa9190611676565b60405180910390f35b61021d60048036038101906102189190611691565b610c23565b005b6102396004803603810190610234919061145b565b610e46565b60405161024691906110ac565b60405180910390f35b610257610ebc565b6040516102649190611748565b60405180910390f35b6102876004803603810190610282919061145b565b610ecf565b60405161029592919061177e565b60405180910390f35b6102a6610f30565b6040516102b391906110ac565b60405180910390f35b6102c4610f37565b6040516102d191906110ac565b60405180910390f35b6201518060076102ea91906117d6565b81565b60016003811115610301576103006116d1565b5b600160149054906101000a900460ff166003811115610323576103226116d1565b5b14610363576040517f08c379a000000000000000000000000000000000000000000000000000000000815260040161035a9061188a565b60405180910390fd5b60048054905085106103aa576040517f08c379a00000000000000000000000000000000000000000000000000000000081526004016103a1906118f6565b60405180910390fd5b60006002116103ee576040517f08c379a00000000000000000000000000000000000000000000000000000000081526004016103e590611962565b60405180910390fd5b6000600211610432576040517f08c379a0000000000000000000000000000000000000000000000000000000008152600401610429906119ce565b60405180910390fd5b6000600211610476576040517f08c379a000000000000000000000000000000000000000000000000000000000815260040161046d90611a3a565b60405180910390fd5b60008151116104ba576040517f08c379a00000000000000000000000000000000000000000000000000000000081526004016104b190611aa6565b60405180910390fd5b60025442116104fe576040517f08c379a00000000000000000000000000000000000000000000000000000000081526004016104f590611b12565b60405180910390fd5b6201518060035461050f9190611b32565b4210610550576040517f08c379a000000000000000000000000000000000000000000000000000000000815260040161054790611bb2565b60405180910390fd5b60006005868154811061056657610565611bd2565b5b906000526020600020906005020190508060000160149054906101000a900460ff16156105c8576040517f08c379a00000000000000000000000000000000000000000000000000000000081526004016105bf90611c4d565b60405180910390fd5b600160009054906101000a900473ffffffffffffffffffffffffffffffffffffffff1673ffffffffffffffffffffffffffffffffffffffff16636743734c8686868660006040518663ffffffff1660e01b815260040161062c959493929190611ef2565b602060405180830381865afa158015610649573d6000803e3d6000fd5b505050506040513d601f19601f8201168201806040525081019061066d9190611f7b565b6106ac576040517f08c379a00000000000000000000000000000000000000000000000000000000081526004016106a390611ff4565b60405180910390fd5b60018160000160146101000a81548160ff02191690831515021790555084816001019060026106dc929190610f3c565b5083816002019060026106f0929190610f89565b508281600301906002610704929190610f3c565b508181600401908051906020019061071d929190610fe4565b506004868154811061073257610731611bd2565b5b9060005260206000209060020201600101600081548092919061075490612014565b9190505550505050505050565b6000806000905060005b6004805490508110156107be576004818154811061078c5761078b611bd2565b5b906000526020600020906002020160010154826107a9919061205c565b915080806107b690612014565b91505061076b565b508091505090565b60035481565b600481815481106107dc57600080fd5b90600052602060002090600202016000915090508060000180546107ff906120bf565b80601f016020809104026020016040519081016040528092919081815260200182805461082b906120bf565b80156108785780601f1061084d57610100808354040283529160200191610878565b820191906000526020600020905b81548152906001019060200180831161085b57829003601f168201915b5050505050908060010154905082565b6000600381111561089c5761089b6116d1565b5b600160149054906101000a900460ff1660038111156108be576108bd6116d1565b5b146108fe576040517f08c379a00000000000000000000000000000000000000000000000000000000081526004016108f59061213c565b60405180910390fd5b606360048054905010610946576040517f08c379a000000000000000000000000000000000000000000000000000000000815260040161093d906121ce565b60405180910390fd5b600081511161098a576040517f08c379a00000000000000000000000000000000000000000000000000000000081526004016109819061223a565b60405180910390fd5b3373ffffffffffffffffffffffffffffffffffffffff16600660009054906101000a900473ffffffffffffffffffffffffffffffffffffffff1673ffffffffffffffffffffffffffffffffffffffff1614610a1a576040517f08c379a0000000000000000000000000000000000000000000000000000000008152600401610a11906122cc565b60405180910390fd5b60046040518060400160405280838152602001600081525090806001815401808255809150506001900390600052602060002090600202016000909190919091506000820151816000019081610a70919061248e565b5060208201518160010155505050565b60016003811115610a9457610a936116d1565b5b600160149054906101000a900460ff166003811115610ab657610ab56116d1565b5b14610af6576040517f08c379a0000000000000000000000000000000000000000000000000000000008152600401610aed9061188a565b60405180910390fd5b6003544211610b3a576040517f08c379a0000000000000000000000000000000000000000000000000000000008152600401610b31906125ac565b60405180910390fd5b3373ffffffffffffffffffffffffffffffffffffffff16600660009054906101000a900473ffffffffffffffffffffffffffffffffffffffff1673ffffffffffffffffffffffffffffffffffffffff1614610bca576040517f08c379a0000000000000000000000000000000000000000000000000000000008152600401610bc19061263e565b60405180910390fd5b6003600160146101000a81548160ff02191690836003811115610bf057610bef6116d1565b5b0217905550565b60025481565b600660009054906101000a900473ffffffffffffffffffffffffffffffffffffffff1681565b60006003811115610c3757610c366116d1565b5b600160149054906101000a900460ff166003811115610c5957610c586116d1565b5b14610c99576040517f08c379a0000000000000000000000000000000000000000000000000000000008152600401610c909061213c565b60405180910390fd5b428211610cdb576040517f08c379a0000000000000000000000000000000000000000000000000000000008152600401610cd2906126d0565b60405180910390fd5b818111610d1d576040517f08c379a0000000000000000000000000000000000000000000000000000000008152600401610d1490612762565b60405180910390fd5b620151806007610d2d91906117d6565b8282610d399190611b32565b1015610d7a576040517f08c379a0000000000000000000000000000000000000000000000000000000008152600401610d71906127ce565b60405180910390fd5b3373ffffffffffffffffffffffffffffffffffffffff16600660009054906101000a900473ffffffffffffffffffffffffffffffffffffffff1673ffffffffffffffffffffffffffffffffffffffff1614610e0a576040517f08c379a0000000000000000000000000000000000000000000000000000000008152600401610e0190612860565b60405180910390fd5b816002819055508060038190555060018060146101000a81548160ff02191690836003811115610e3d57610e3c6116d1565b5b02179055505050565b60006004805490508210610e8f576040517f08c379a0000000000000000000000000000000000000000000000000000000008152600401610e86906118f6565b60405180910390fd5b60048281548110610ea357610ea2611bd2565b5b9060005260206000209060020201600101549050919050565b600160149054906101000a900460ff1681565b60058181548110610edf57600080fd5b90600052602060002090600502016000915090508060000160009054906101000a900473ffffffffffffffffffffffffffffffffffffffff16908060000160149054906101000a900460ff16905082565b6201518081565b606381565b828054828255906000526020600020908101928215610f78579160200282015b82811115610f77578251825591602001919060010190610f5c565b5b509050610f859190611031565b5090565b828054828255906000526020600020908101928215610fd3579160200282015b82811115610fd257825182906002610fc2929190610f3c565b5091602001919060010190610fa9565b5b509050610fe0919061104e565b5090565b828054828255906000526020600020908101928215611020579160200282015b8281111561101f578251825591602001919060010190611004565b5b50905061102d9190611031565b5090565b5b8082111561104a576000816000905550600101611032565b5090565b5b8082111561106e57600081816110659190611072565b5060010161104f565b5090565b50805460008255906000526020600020908101906110909190611031565b50565b6000819050919050565b6110a681611093565b82525050565b60006020820190506110c1600083018461109d565b92915050565b6000604051905090565b600080fd5b600080fd5b6110e481611093565b81146110ef57600080fd5b50565b600081359050611101816110db565b92915050565b600080fd5b6000601f19601f8301169050919050565b7f4e487b7100000000000000000000000000000000000000000000000000000000600052604160045260246000fd5b6111558261110c565b810181811067ffffffffffffffff821117156111745761117361111d565b5b80604052505050565b60006111876110c7565b9050611193828261114c565b919050565b600067ffffffffffffffff8211156111b3576111b261111d565b5b602082029050919050565b600080fd5b60006111d66111d184611198565b61117d565b905080602084028301858111156111f0576111ef6111be565b5b835b81811015611219578061120588826110f2565b8452602084019350506020810190506111f2565b5050509392505050565b600082601f83011261123857611237611107565b5b60026112458482856111c3565b91505092915050565b600067ffffffffffffffff8211156112695761126861111d565b5b602082029050919050565b60006112876112828461124e565b61117d565b905080604084028301858111156112a1576112a06111be565b5b835b818110156112ca57806112b68882611223565b8452602084019350506040810190506112a3565b5050509392505050565b600082601f8301126112e9576112e8611107565b5b60026112f6848285611274565b91505092915050565b600067ffffffffffffffff82111561131a5761131961111d565b5b602082029050602081019050919050565b600061133e611339846112ff565b61117d565b90508083825260208201905060208402830185811115611361576113606111be565b5b835b8181101561138a578061137688826110f2565b845260208401935050602081019050611363565b5050509392505050565b600082601f8301126113a9576113a8611107565b5b81356113b984826020860161132b565b91505092915050565b600080600080600061014086880312156113df576113de6110d1565b5b60006113ed888289016110f2565b95505060206113fe88828901611223565b945050606061140f888289016112d4565b93505060e061142088828901611223565b92505061012086013567ffffffffffffffff811115611442576114416110d6565b5b61144e88828901611394565b9150509295509295909350565b600060208284031215611471576114706110d1565b5b600061147f848285016110f2565b91505092915050565b600081519050919050565b600082825260208201905092915050565b60005b838110156114c25780820151818401526020810190506114a7565b60008484015250505050565b60006114d982611488565b6114e38185611493565b93506114f38185602086016114a4565b6114fc8161110c565b840191505092915050565b6000604082019050818103600083015261152181856114ce565b9050611530602083018461109d565b9392505050565b600080fd5b600067ffffffffffffffff8211156115575761155661111d565b5b6115608261110c565b9050602081019050919050565b82818337600083830152505050565b600061158f61158a8461153c565b61117d565b9050828152602081018484840111156115ab576115aa611537565b5b6115b684828561156d565b509392505050565b600082601f8301126115d3576115d2611107565b5b81356115e384826020860161157c565b91505092915050565b600060208284031215611602576116016110d1565b5b600082013567ffffffffffffffff8111156116205761161f6110d6565b5b61162c848285016115be565b91505092915050565b600073ffffffffffffffffffffffffffffffffffffffff82169050919050565b600061166082611635565b9050919050565b61167081611655565b82525050565b600060208201905061168b6000830184611667565b92915050565b600080604083850312156116a8576116a76110d1565b5b60006116b6858286016110f2565b92505060206116c7858286016110f2565b9150509250929050565b7f4e487b7100000000000000000000000000000000000000000000000000000000600052602160045260246000fd5b60048110611711576117106116d1565b5b50565b600081905061172282611700565b919050565b600061173282611714565b9050919050565b61174281611727565b82525050565b600060208201905061175d6000830184611739565b92915050565b60008115159050919050565b61177881611763565b82525050565b60006040820190506117936000830185611667565b6117a0602083018461176f565b9392505050565b7f4e487b7100000000000000000000000000000000000000000000000000000000600052601160045260246000fd5b60006117e182611093565b91506117ec83611093565b92508282026117fa81611093565b91508282048414831517611811576118106117a7565b5b5092915050565b7f566f74696e67206973206e6f742063757272656e746c7920696e2070726f677260008201527f6573732e00000000000000000000000000000000000000000000000000000000602082015250565b6000611874602483611493565b915061187f82611818565b604082019050919050565b600060208201905081810360008301526118a381611867565b9050919050565b7f496e76616c69642063616e6469646174652069642e0000000000000000000000600082015250565b60006118e0601583611493565b91506118eb826118aa565b602082019050919050565b6000602082019050818103600083015261190f816118d3565b9050919050565b7f496e76616c69642070726f6f6620612e00000000000000000000000000000000600082015250565b600061194c601083611493565b915061195782611916565b602082019050919050565b6000602082019050818103600083015261197b8161193f565b9050919050565b7f496e76616c69642070726f6f6620622e00000000000000000000000000000000600082015250565b60006119b8601083611493565b91506119c382611982565b602082019050919050565b600060208201905081810360008301526119e7816119ab565b9050919050565b7f496e76616c69642070726f6f6620632e00000000000000000000000000000000600082015250565b6000611a24601083611493565b9150611a2f826119ee565b602082019050919050565b60006020820190508181036000830152611a5381611a17565b9050919050565b7f496e76616c696420696e70757420646174612e00000000000000000000000000600082015250565b6000611a90601383611493565b9150611a9b82611a5a565b602082019050919050565b60006020820190508181036000830152611abf81611a83565b9050919050565b7f566f74696e6720686173206e6f742079657420737461727465642e0000000000600082015250565b6000611afc601b83611493565b9150611b0782611ac6565b602082019050919050565b60006020820190508181036000830152611b2b81611aef565b9050919050565b6000611b3d82611093565b9150611b4883611093565b9250828203905081811115611b6057611b5f6117a7565b5b92915050565b7f566f74696e6720706572696f642068617320656e6465642e0000000000000000600082015250565b6000611b9c601883611493565b9150611ba782611b66565b602082019050919050565b60006020820190508181036000830152611bcb81611b8f565b9050919050565b7f4e487b7100000000000000000000000000000000000000000000000000000000600052603260045260246000fd5b7f596f75206861766520616c7265616479206361737420796f757220766f74652e600082015250565b6000611c37602083611493565b9150611c4282611c01565b602082019050919050565b60006020820190508181036000830152611c6681611c2a565b9050919050565b600060029050919050565b600081905092915050565b6000819050919050565b611c9681611093565b82525050565b6000611ca88383611c8d565b60208301905092915050565b6000602082019050919050565b611cca81611c6d565b611cd48184611c78565b9250611cdf82611c83565b8060005b83811015611d10578151611cf78782611c9c565b9650611d0283611cb4565b925050600181019050611ce3565b505050505050565b600060029050919050565b600081905092915050565b6000819050919050565b600081905092915050565b611d4c81611c6d565b611d568184611d38565b9250611d6182611c83565b8060005b83811015611d92578151611d798782611c9c565b9650611d8483611cb4565b925050600181019050611d65565b505050505050565b6000611da68383611d43565b60408301905092915050565b6000602082019050919050565b611dc881611d18565b611dd28184611d23565b9250611ddd82611d2e565b8060005b83811015611e0e578151611df58782611d9a565b9650611e0083611db2565b925050600181019050611de1565b505050505050565b600081519050919050565b600082825260208201905092915050565b6000819050602082019050919050565b6000602082019050919050565b6000611e5a82611e16565b611e648185611e21565b9350611e6f83611e32565b8060005b83811015611ea0578151611e878882611c9c565b9750611e9283611e42565b925050600181019050611e73565b5085935050505092915050565b6000819050919050565b6000819050919050565b6000611edc611ed7611ed284611ead565b611eb7565b611093565b9050919050565b611eec81611ec1565b82525050565b600061014082019050611f086000830188611cc1565b611f156040830187611dbf565b611f2260c0830186611cc1565b818103610100830152611f358185611e4f565b9050611f45610120830184611ee3565b9695505050505050565b611f5881611763565b8114611f6357600080fd5b50565b600081519050611f7581611f4f565b92915050565b600060208284031215611f9157611f906110d1565b5b6000611f9f84828501611f66565b91505092915050565b7f496e76616c69642070726f6f662e000000000000000000000000000000000000600082015250565b6000611fde600e83611493565b9150611fe982611fa8565b602082019050919050565b6000602082019050818103600083015261200d81611fd1565b9050919050565b600061201f82611093565b91507fffffffffffffffffffffffffffffffffffffffffffffffffffffffffffffffff8203612051576120506117a7565b5b600182019050919050565b600061206782611093565b915061207283611093565b925082820190508082111561208a576120896117a7565b5b92915050565b7f4e487b7100000000000000000000000000000000000000000000000000000000600052602260045260246000fd5b600060028204905060018216806120d757607f821691505b6020821081036120ea576120e9612090565b5b50919050565b7f566f74696e672068617320616c726561647920737461727465642e0000000000600082015250565b6000612126601b83611493565b9150612131826120f0565b602082019050919050565b6000602082019050818103600083015261215581612119565b9050919050565b7f4d6178206e756d626572206f662063616e64696461746573207265616368656460008201527f2e00000000000000000000000000000000000000000000000000000000000000602082015250565b60006121b8602183611493565b91506121c38261215c565b604082019050919050565b600060208201905081810360008301526121e7816121ab565b9050919050565b7f496e76616c69642063616e646964617465206e616d652e000000000000000000600082015250565b6000612224601783611493565b915061222f826121ee565b602082019050919050565b6000602082019050818103600083015261225381612217565b9050919050565b7f4f6e6c792074686520636f6e7472616374206f776e65722063616e206164642060008201527f63616e646964617465732e000000000000000000000000000000000000000000602082015250565b60006122b6602b83611493565b91506122c18261225a565b604082019050919050565b600060208201905081810360008301526122e5816122a9565b9050919050565b60008190508160005260206000209050919050565b60006020601f8301049050919050565b600082821b905092915050565b60006008830261234e7fffffffffffffffffffffffffffffffffffffffffffffffffffffffffffffffff82612311565b6123588683612311565b95508019841693508086168417925050509392505050565b600061238b61238661238184611093565b611eb7565b611093565b9050919050565b6000819050919050565b6123a583612370565b6123b96123b182612392565b84845461231e565b825550505050565b600090565b6123ce6123c1565b6123d981848461239c565b505050565b5b818110156123fd576123f26000826123c6565b6001810190506123df565b5050565b601f82111561244257612413816122ec565b61241c84612301565b8101602085101561242b578190505b61243f61243785612301565b8301826123de565b50505b505050565b600082821c905092915050565b600061246560001984600802612447565b1980831691505092915050565b600061247e8383612454565b9150826002028217905092915050565b61249782611488565b67ffffffffffffffff8111156124b0576124af61111d565b5b6124ba82546120bf565b6124c5828285612401565b600060209050601f8311600181146124f857600084156124e6578287015190505b6124f08582612472565b865550612558565b601f198416612506866122ec565b60005b8281101561252e57848901518255600182019150602085019450602081019050612509565b8683101561254b5784890151612547601f891682612454565b8355505b6001600288020188555050505b505050505050565b7f566f74696e6720706572696f6420686173206e6f742079657420656e6465642e600082015250565b6000612596602083611493565b91506125a182612560565b602082019050919050565b600060208201905081810360008301526125c581612589565b9050919050565b7f4f6e6c792074686520636f6e7472616374206f776e65722063616e2066696e6160008201527f6c697a652074686520656c656374696f6e2e0000000000000000000000000000602082015250565b6000612628603283611493565b9150612633826125cc565b604082019050919050565b600060208201905081810360008301526126578161261b565b9050919050565b7f53746172742074696d65206d75737420626520696e207468652066757475726560008201527f2e00000000000000000000000000000000000000000000000000000000000000602082015250565b60006126ba602183611493565b91506126c58261265e565b604082019050919050565b600060208201905081810360008301526126e9816126ad565b9050919050565b7f456e642074696d65206d7573742062652061667465722073746172742074696d60008201527f652e000000000000000000000000000000000000000000000000000000000000602082015250565b600061274c602283611493565b9150612757826126f0565b604082019050919050565b6000602082019050818103600083015261277b8161273f565b9050919050565b7f566f74696e6720706572696f6420697320746f6f2073686f72742e0000000000600082015250565b60006127b8601b83611493565b91506127c382612782565b602082019050919050565b600060208201905081810360008301526127e7816127ab565b9050919050565b7f4f6e6c792074686520636f6e7472616374206f776e65722063616e207374617260008201527f742074686520766f74696e6720706572696f642e000000000000000000000000602082015250565b600061284a603483611493565b9150612855826127ee565b604082019050919050565b600060208201905081810360008301526128798161283d565b905091905056fea26469706673582212206b33b641b2d68f9230d336db5843dc93663f32c45d8fdf4553e1a9ddfe583e7a64736f6c63430008110033",
  "immutableReferences": {},
  "source": "// SPDX-License-Identifier: GPL-3.0\npragma solidity ^0.8.0;\n\nimport \"./verifier_MerkleTree.sol\";\nimport \"./verifier_zkSNARK.sol\";\n\n/**\n * @dev A smart contract for conducting elections that utilizes zk-SNARKs for\n * privacy and verifiability.\n * \n * This contract allows for an unlimited number of candidates and an unlimited\n * number of voters. It utilizes a bulletin board style voting process where\n * voters can post their votes, but cannot modify or delete their votes after\n * they have been submitted.\n * \n * The contract is designed to be used with the ZoKrates toolchain for generating\n * zk-SNARK proofs.\n */\ncontract BCSVoting {\n\n    verifierMerkleTree vMerkleProof;\n    verifierZKSNARK vzkSNARK;\n\n    // The minimum amount of time that must pass between a voter posting their vote\n    // and the voting period ending. This is to prevent last-minute vote stuffing.\n    uint256 public constant MIN_VOTE_POSTING_TIME = 60 * 60 * 24; // 1 day\n\n    // The minimum amount of time that must pass between the voting period starting\n    // and ending. This is to ensure that there is sufficient time for all voters\n    // to cast their ballots.\n    uint256 public constant MIN_VOTING_PERIOD = 7 * MIN_VOTE_POSTING_TIME; // 1 week\n\n    // The maximum number of candidates allowed in this election.\n    uint256 public constant MAX_CANDIDATES = 99;\n\n    // The current state of the election.\n    enum State {\n        // The election has not yet started.\n        PRE_VOTING,\n        // The election is currently in progress.\n        VOTING,\n        // The election has ended and the votes are being tallied.\n        POST_VOTING,\n        // The election has been finalized and the results have been recorded.\n        FINISHED\n    }\n    State public state;\n\n    // The start and end timestamps of the voting period.\n    uint256 public startTime;\n    uint256 public endTime;\n\n    // The list of candidates in this election.\n    struct Candidate {\n        // The name of the candidate.\n        string name;\n        // The total number of votes received by the candidate.\n        uint256 voteCount;\n    }\n    Candidate[] public candidates;\n\n    // The list of voters in this election.\n    struct Voter {\n        // The Ethereum address of the voter.\n        address addr;\n        // A flag indicating whether the voter has already cast their vote.\n        bool hasVoted;\n        // The zk-SNARK proof of the voter's vote.\n        uint[] proofa;\n        // The zk-SNARK proof of the voter's vote.\n        uint[][] proofb;\n        // The zk-SNARK proof of the voter's vote.\n        uint[] proofc;\n        // The input data used to generate the zk-SNARK proof.\n        uint[] input;\n    }\n    Voter[] public voters;\n\n    // The contract owner.\n    address public owner;\n\n    // The contract constructor.\n    constructor() {\n        owner = msg.sender;\n        state = State.PRE_VOTING;\n    }\n\n    // Adds a candidate to the election.\n    // Only the contract owner can add candidates.\n    function addCandidate(\n        string memory _name) public {\n        require(state == State.PRE_VOTING, \"Voting has already started.\");\n        require(candidates.length < MAX_CANDIDATES, \"Max number of candidates reached.\");\n        require(bytes(_name).length > 0, \"Invalid candidate name.\");\n        require(owner == msg.sender, \"Only the contract owner can add candidates.\");\n\n        candidates.push(Candidate(_name, 0));\n    }\n\n    // Begins the voting period.\n    // Only the contract owner can begin the voting period.\n    function startVoting(uint256 _startTime, uint256 _endTime) public {\n        require(state == State.PRE_VOTING, \"Voting has already started.\");\n        require(_startTime > block.timestamp, \"Start time must be in the future.\");\n        require(_endTime > _startTime, \"End time must be after start time.\");\n        require(_endTime - _startTime >= MIN_VOTING_PERIOD, \"Voting period is too short.\");\n        require(owner == msg.sender, \"Only the contract owner can start the voting period.\");\n\n        startTime = _startTime;\n        endTime = _endTime;\n        state = State.VOTING;\n    }\n\n    // Posts a vote to the contract.\n    function vote(uint256 _candidateId, uint[2] memory _proofa, uint[2][2] memory _proofb, uint[2] memory _proofc, uint[] memory _input) public {\n        require(state == State.VOTING, \"Voting is not currently in progress.\");\n        require(_candidateId < candidates.length, \"Invalid candidate id.\");\n        require(_proofa.length > 0, \"Invalid proof a.\");\n        require(_proofb.length > 0, \"Invalid proof b.\");\n        require(_proofc.length > 0, \"Invalid proof c.\");\n        require(_input.length > 0, \"Invalid input data.\");\n        require(block.timestamp > startTime, \"Voting has not yet started.\");\n        require(block.timestamp < endTime - MIN_VOTE_POSTING_TIME, \"Voting period has ended.\");\n\n        // Check if the voter has already cast their vote.\n        //address voterAddr = msg.sender;\n        Voter storage voter = voters[_candidateId];\n        require(!voter.hasVoted, \"You have already cast your vote.\");\n\n        // Verify the zk-SNARK proof.\n\n        require(vzkSNARK.verifyProof(_proofa, _proofb, _proofc, _input, 0), \"Invalid proof.\");\n        \n        // Update the voter's information.\n        voter.hasVoted = true;\n        voter.proofa = _proofa;\n        voter.proofb = _proofb;\n        voter.proofc = _proofc;\n        voter.input = _input;\n\n        // Update the candidate's vote count.\n        candidates[_candidateId].voteCount++;\n    }\n\n    // Finalizes the election and records the results.\n    // Only the contract owner can finalize the election.\n    function finalize() public {\n        require(state == State.VOTING, \"Voting is not currently in progress.\");\n        require(block.timestamp > endTime, \"Voting period has not yet ended.\");\n        require(owner == msg.sender, \"Only the contract owner can finalize the election.\");\n\n        state = State.FINISHED;\n    }\n\n    // Gets the vote count for a specific candidate.\n    function getVoteCount(uint256 _candidateId) public view returns (uint256) {\n                require(_candidateId < candidates.length, \"Invalid candidate id.\");\n        return candidates[_candidateId].voteCount;\n    }\n\n    // Gets the total number of votes cast in this election.\n    function getTotalVoteCount() public view returns (uint256) {\n        uint256 total = 0;\n        for (uint256 i = 0; i < candidates.length; i++) {\n            total += candidates[i].voteCount;\n        }\n        return total;\n    }\n\n    // Gets the voter information for a specific address.\n    // function getVoterInfo(uint256 _addr) public returns (bool, uint[] memory, uint[2] memory, uint[] memory, uint[] memory) {\n    //     Voter storage voter = voters[_addr];\n    //     return (voter.hasVoted, voter.proofa, voter.proofb, voter.proofc, voter.input);\n    // }\n}\n",
  "sourcePath": "/Users/hafizadnanhussain/Desktop/e-voting/spin/BCSVoting/contracts/BCSVoting.sol",
  "compiler": {
    "name": "solc",
    "version": "0.8.17+commit.8df45f5f.Emscripten.clang"
  },
  "schemaVersion": "3.4.11",
  "updatedAt": "2023-01-09T17:46:56.675Z",
  "devdoc": {
    "details": "A smart contract for conducting elections that utilizes zk-SNARKs for privacy and verifiability.  This contract allows for an unlimited number of candidates and an unlimited number of voters. It utilizes a bulletin board style voting process where voters can post their votes, but cannot modify or delete their votes after they have been submitted.  The contract is designed to be used with the ZoKrates toolchain for generating zk-SNARK proofs.",
    "kind": "dev",
    "methods": {},
    "version": 1
  },
  "userdoc": {
    "kind": "user",
    "methods": {},
    "version": 1
  }
}