{
  "contractName": "verifierMerkleTree",
  "abi": [
    {
      "inputs": [
        {
          "internalType": "bytes32[]",
          "name": "proof",
          "type": "bytes32[]"
        },
        {
          "internalType": "bytes32",
          "name": "root",
          "type": "bytes32"
        },
        {
          "internalType": "bytes32",
          "name": "leaf",
          "type": "bytes32"
        }
      ],
      "name": "verifyProof",
      "outputs": [
        {
          "internalType": "bool",
          "name": "",
          "type": "bool"
        }
      ],
      "stateMutability": "pure",
      "type": "function"
    }
  ],
  "bytecode": "0x608060405234801561001057600080fd5b50610492806100206000396000f3fe608060405234801561001057600080fd5b506004361061002b5760003560e01c80634bc935d714610030575b600080fd5b61004a600480360381019061004591906102ba565b610060565b6040516100579190610344565b60405180910390f35b60008082905060005b85518110156101095760008682815181106100875761008661035f565b5b60200260200101519050808310156100c95782816040516020016100ac9291906103af565b6040516020818303038152906040528051906020012092506100f5565b80836040516020016100dc9291906103af565b6040516020818303038152906040528051906020012092505b50808061010190610414565b915050610069565b508381149150509392505050565b6000604051905090565b600080fd5b600080fd5b600080fd5b6000601f19601f8301169050919050565b7f4e487b7100000000000000000000000000000000000000000000000000000000600052604160045260246000fd5b61017982610130565b810181811067ffffffffffffffff8211171561019857610197610141565b5b80604052505050565b60006101ab610117565b90506101b78282610170565b919050565b600067ffffffffffffffff8211156101d7576101d6610141565b5b602082029050602081019050919050565b600080fd5b6000819050919050565b610200816101ed565b811461020b57600080fd5b50565b60008135905061021d816101f7565b92915050565b6000610236610231846101bc565b6101a1565b90508083825260208201905060208402830185811115610259576102586101e8565b5b835b81811015610282578061026e888261020e565b84526020840193505060208101905061025b565b5050509392505050565b600082601f8301126102a1576102a061012b565b5b81356102b1848260208601610223565b91505092915050565b6000806000606084860312156102d3576102d2610121565b5b600084013567ffffffffffffffff8111156102f1576102f0610126565b5b6102fd8682870161028c565b935050602061030e8682870161020e565b925050604061031f8682870161020e565b9150509250925092565b60008115159050919050565b61033e81610329565b82525050565b60006020820190506103596000830184610335565b92915050565b7f4e487b7100000000000000000000000000000000000000000000000000000000600052603260045260246000fd5b6000819050919050565b6103a96103a4826101ed565b61038e565b82525050565b60006103bb8285610398565b6020820191506103cb8284610398565b6020820191508190509392505050565b7f4e487b7100000000000000000000000000000000000000000000000000000000600052601160045260246000fd5b6000819050919050565b600061041f8261040a565b91507fffffffffffffffffffffffffffffffffffffffffffffffffffffffffffffffff8203610451576104506103db565b5b60018201905091905056fea2646970667358221220055299cf4f6eea5188739640132db906dc52241266a2aaefe476e3c26294f39964736f6c63430008110033",
  "immutableReferences": {},
  "source": "// SPDX-License-Identifier: UNLICENSED\npragma solidity ^0.8.0;\n\ncontract verifierMerkleTree {\n    \n    function verifyProof(bytes32[] memory proof, bytes32 root, bytes32 leaf) public pure returns (bool) {\n        bytes32 computedHash = leaf;\n        for (uint256 i = 0; i < proof.length; i++) {\n            bytes32 proofElement = proof[i];\n            if (computedHash < proofElement) {\n                computedHash = keccak256(abi.encodePacked(computedHash, proofElement));\n            } else {\n                computedHash = keccak256(abi.encodePacked(proofElement, computedHash));\n            }\n        }\n        return computedHash == root;\n    }\n}",
  "sourcePath": "/Users/hafizadnanhussain/Desktop/e-voting/spin/BCSVoting/contracts/verifier_MerkleTree.sol",
  "compiler": {
    "name": "solc",
    "version": "0.8.17+commit.8df45f5f.Emscripten.clang"
  },
  "schemaVersion": "3.4.11",
  "updatedAt": "2023-01-09T17:46:56.687Z",
  "devdoc": {
    "kind": "dev",
    "methods": {},
    "version": 1
  },
  "userdoc": {
    "kind": "user",
    "methods": {},
    "version": 1
  }
}