{
  "contractName": "verifierZKSNARK",
  "abi": [
    {
      "inputs": [],
      "stateMutability": "nonpayable",
      "type": "constructor"
    },
    {
      "inputs": [],
      "name": "admin",
      "outputs": [
        {
          "internalType": "address",
          "name": "",
          "type": "address"
        }
      ],
      "stateMutability": "view",
      "type": "function"
    },
    {
      "inputs": [
        {
          "internalType": "uint256",
          "name": "",
          "type": "uint256"
        }
      ],
      "name": "vk",
      "outputs": [
        {
          "components": [
            {
              "internalType": "uint256",
              "name": "X",
              "type": "uint256"
            },
            {
              "internalType": "uint256",
              "name": "Y",
              "type": "uint256"
            }
          ],
          "internalType": "struct G1Point",
          "name": "alpha1",
          "type": "tuple"
        },
        {
          "components": [
            {
              "internalType": "uint256[2]",
              "name": "X",
              "type": "uint256[2]"
            },
            {
              "internalType": "uint256[2]",
              "name": "Y",
              "type": "uint256[2]"
            }
          ],
          "internalType": "struct G2Point",
          "name": "beta2",
          "type": "tuple"
        },
        {
          "components": [
            {
              "internalType": "uint256[2]",
              "name": "X",
              "type": "uint256[2]"
            },
            {
              "internalType": "uint256[2]",
              "name": "Y",
              "type": "uint256[2]"
            }
          ],
          "internalType": "struct G2Point",
          "name": "gamma2",
          "type": "tuple"
        },
        {
          "components": [
            {
              "internalType": "uint256[2]",
              "name": "X",
              "type": "uint256[2]"
            },
            {
              "internalType": "uint256[2]",
              "name": "Y",
              "type": "uint256[2]"
            }
          ],
          "internalType": "struct G2Point",
          "name": "delta2",
          "type": "tuple"
        }
      ],
      "stateMutability": "view",
      "type": "function"
    },
    {
      "inputs": [
        {
          "components": [
            {
              "components": [
                {
                  "internalType": "uint256",
                  "name": "X",
                  "type": "uint256"
                },
                {
                  "internalType": "uint256",
                  "name": "Y",
                  "type": "uint256"
                }
              ],
              "internalType": "struct G1Point",
              "name": "alpha1",
              "type": "tuple"
            },
            {
              "components": [
                {
                  "internalType": "uint256[2]",
                  "name": "X",
                  "type": "uint256[2]"
                },
                {
                  "internalType": "uint256[2]",
                  "name": "Y",
                  "type": "uint256[2]"
                }
              ],
              "internalType": "struct G2Point",
              "name": "beta2",
              "type": "tuple"
            },
            {
              "components": [
                {
                  "internalType": "uint256[2]",
                  "name": "X",
                  "type": "uint256[2]"
                },
                {
                  "internalType": "uint256[2]",
                  "name": "Y",
                  "type": "uint256[2]"
                }
              ],
              "internalType": "struct G2Point",
              "name": "gamma2",
              "type": "tuple"
            },
            {
              "components": [
                {
                  "internalType": "uint256[2]",
                  "name": "X",
                  "type": "uint256[2]"
                },
                {
                  "internalType": "uint256[2]",
                  "name": "Y",
                  "type": "uint256[2]"
                }
              ],
              "internalType": "struct G2Point",
              "name": "delta2",
              "type": "tuple"
            },
            {
              "components": [
                {
                  "internalType": "uint256",
                  "name": "X",
                  "type": "uint256"
                },
                {
                  "internalType": "uint256",
                  "name": "Y",
                  "type": "uint256"
                }
              ],
              "internalType": "struct G1Point[]",
              "name": "IC",
              "type": "tuple[]"
            }
          ],
          "internalType": "struct VerifyingKey",
          "name": "_vKey",
          "type": "tuple"
        },
        {
          "internalType": "uint256",
          "name": "index",
          "type": "uint256"
        }
      ],
      "name": "setVerifyingKey",
      "outputs": [],
      "stateMutability": "nonpayable",
      "type": "function"
    },
    {
      "inputs": [
        {
          "internalType": "uint256[2]",
          "name": "a",
          "type": "uint256[2]"
        },
        {
          "internalType": "uint256[2][2]",
          "name": "b",
          "type": "uint256[2][2]"
        },
        {
          "internalType": "uint256[2]",
          "name": "c",
          "type": "uint256[2]"
        },
        {
          "internalType": "uint256[]",
          "name": "input",
          "type": "uint256[]"
        },
        {
          "internalType": "uint256",
          "name": "vkIndex",
          "type": "uint256"
        }
      ],
      "name": "verifyProof",
      "outputs": [
        {
          "internalType": "bool",
          "name": "r",
          "type": "bool"
        }
      ],
      "stateMutability": "view",
      "type": "function"
    }
  ],
  "bytecode": "0x608060405234801561001057600080fd5b50336000806101000a81548173ffffffffffffffffffffffffffffffffffffffff021916908373ffffffffffffffffffffffffffffffffffffffff160217905550612248806100606000396000f3fe608060405234801561001057600080fd5b506004361061004c5760003560e01c806345af8b20146100515780636743734c1461006d578063b4e55fed1461009d578063f851a440146100d0575b600080fd5b61006b60048036038101906100669190611705565b6100ee565b005b61008760048036038101906100829190611a1c565b6104de565b6040516100949190611ad1565b60405180910390f35b6100b760048036038101906100b29190611aec565b6106b2565b6040516100c79493929190611c22565b60405180910390f35b6100d86108c2565b6040516100e59190611caa565b60405180910390f35b60008054906101000a900473ffffffffffffffffffffffffffffffffffffffff1673ffffffffffffffffffffffffffffffffffffffff163373ffffffffffffffffffffffffffffffffffffffff161461017c576040517f08c379a000000000000000000000000000000000000000000000000000000000815260040161017390611d48565b60405180910390fd5b81600001600001356001826003811061019857610197611d68565b5b600f0201600001600001819055508160000160200135600182600381106101c2576101c1611d68565b5b600f02016000016001018190555060005b60028110156103e3578260400160000181600281106101f5576101f4611d68565b5b60200201356001836003811061020e5761020d611d68565b5b600f0201600201600001826002811061022a57610229611d68565b5b018190555082604001604001816002811061024857610247611d68565b5b60200201356001836003811061026157610260611d68565b5b600f0201600201600201826002811061027d5761027c611d68565b5b01819055508260c001600001816002811061029b5761029a611d68565b5b6020020135600183600381106102b4576102b3611d68565b5b600f020160060160000182600281106102d0576102cf611d68565b5b01819055508260c00160400181600281106102ee576102ed611d68565b5b60200201356001836003811061030757610306611d68565b5b600f0201600601600201826002811061032357610322611d68565b5b01819055508261014001600001816002811061034257610341611d68565b5b60200201356001836003811061035b5761035a611d68565b5b600f0201600a01600001826002811061037757610376611d68565b5b01819055508261014001604001816002811061039657610395611d68565b5b6020020135600183600381106103af576103ae611d68565b5b600f0201600a0160020182600281106103cb576103ca611d68565b5b018190555080806103db90611dc6565b9150506101d3565b5060005b82806101c001906103f89190611e1d565b90508110156104d9576001826003811061041557610414611d68565b5b600f0201600e01604051806040016040528085806101c001906104389190611e1d565b8581811061044957610448611d68565b5b90506040020160000135815260200185806101c001906104699190611e1d565b8581811061047a57610479611d68565b5b9050604002016020013581525090806001815401808255809150506001900390600052602060002090600202016000909190919091506000820151816000015560208201518160010155505080806104d190611dc6565b9150506103e7565b505050565b60006104e861159b565b60405180604001604052808860006002811061050757610506611d68565b5b602002015181526020018860016002811061052557610524611d68565b5b60200201518152508160000181905250604051806040016040528060405180604001604052808960006002811061055f5761055e611d68565b5b602002015160006002811061057757610576611d68565b5b602002015181526020018960006002811061059557610594611d68565b5b60200201516001600281106105ad576105ac611d68565b5b602002015181525081526020016040518060400160405280896001600281106105d9576105d8611d68565b5b60200201516000600281106105f1576105f0611d68565b5b602002015181526020018960016002811061060f5761060e611d68565b5b602002015160016002811061062757610626611d68565b5b6020020151815250815250816020018190525060405180604001604052808660006002811061065957610658611d68565b5b602002015181526020018660016002811061067757610676611d68565b5b6020020151815250816040018190525060006106948583866108e6565b036106a35760019150506106a9565b60009150505b95945050505050565b600181600381106106c257600080fd5b600f0201600091509050806000016040518060400160405290816000820154815260200160018201548152505090806002016040518060400160405290816000820160028060200260405190810160405280929190826002801561073b576020028201915b815481526020019060010190808311610727575b5050505050815260200160028201600280602002604051908101604052809291908260028015610780576020028201915b81548152602001906001019080831161076c575b5050505050815250509080600601604051806040016040529081600082016002806020026040519081016040528092919082600280156107d5576020028201915b8154815260200190600101908083116107c1575b505050505081526020016002820160028060200260405190810160405280929190826002801561081a576020028201915b815481526020019060010190808311610806575b5050505050815250509080600a016040518060400160405290816000820160028060200260405190810160405280929190826002801561086f576020028201915b81548152602001906001019080831161085b575b50505050508152602001600282016002806020026040519081016040528092919082600280156108b4576020028201915b8154815260200190600101908083116108a0575b505050505081525050905084565b60008054906101000a900473ffffffffffffffffffffffffffffffffffffffff1681565b6000807f30644e72e131a029b85045b68181585d2833e84879b9709143e1f593f00000019050600183600381106109205761091f611d68565b5b600f0201600e0180549050600186516109399190611e80565b14610979576040517f08c379a000000000000000000000000000000000000000000000000000000000815260040161097090611f00565b60405180910390fd5b60006040518060400160405280600081526020016000815250905060005b8651811015610aa357828782815181106109b4576109b3611d68565b5b6020026020010151106109fc576040517f08c379a00000000000000000000000000000000000000000000000000000000081526004016109f390611f6c565b60405180910390fd5b610a8e82610a8960018860038110610a1757610a16611d68565b5b600f0201600e01600185610a2b9190611e80565b81548110610a3c57610a3b611d68565b5b9060005260206000209060020201604051806040016040529081600082015481526020016001820154815250508a8581518110610a7c57610a7b611d68565b5b6020026020010151610d91565b610e69565b91508080610a9b90611dc6565b915050610997565b50610b088160018660038110610abc57610abb611d68565b5b600f0201600e01600081548110610ad657610ad5611d68565b5b906000526020600020906002020160405180604001604052908160008201548152602001600182015481525050610e69565b9050610d74610b1a8660000151610f67565b866020015160018760038110610b3357610b32611d68565b5b600f02016000016040518060400160405290816000820154815260200160018201548152505060018860038110610b6d57610b6c611d68565b5b600f020160020160405180604001604052908160008201600280602002604051908101604052809291908260028015610bbb576020028201915b815481526020019060010190808311610ba7575b5050505050815260200160028201600280602002604051908101604052809291908260028015610c00576020028201915b815481526020019060010190808311610bec575b5050505050815250508560018a60038110610c1e57610c1d611d68565b5b600f020160060160405180604001604052908160008201600280602002604051908101604052809291908260028015610c6c576020028201915b815481526020019060010190808311610c58575b5050505050815260200160028201600280602002604051908101604052809291908260028015610cb1576020028201915b815481526020019060010190808311610c9d575b5050505050815250508b6040015160018c60038110610cd357610cd2611d68565b5b600f0201600a0160405180604001604052908160008201600280602002604051908101604052809291908260028015610d21576020028201915b815481526020019060010190808311610d0d575b5050505050815260200160028201600280602002604051908101604052809291908260028015610d66576020028201915b815481526020019060010190808311610d52575b50505050508152505061100c565b610d8357600192505050610d8a565b6000925050505b9392505050565b610d996115ce565b610da16115e8565b836000015181600060038110610dba57610db9611d68565b5b602002018181525050836020015181600160038110610ddc57610ddb611d68565b5b6020020181815250508281600260038110610dfa57610df9611d68565b5b602002018181525050600060608360808460076107d05a03fa90508060008103610e2057fe5b5080610e61576040517f08c379a0000000000000000000000000000000000000000000000000000000008152600401610e5890611fd8565b60405180910390fd5b505092915050565b610e716115ce565b610e7961160a565b836000015181600060048110610e9257610e91611d68565b5b602002018181525050836020015181600160048110610eb457610eb3611d68565b5b602002018181525050826000015181600260048110610ed657610ed5611d68565b5b602002018181525050826020015181600360048110610ef857610ef7611d68565b5b602002018181525050600060608360c08460066107d05a03fa90508060008103610f1e57fe5b5080610f5f576040517f08c379a0000000000000000000000000000000000000000000000000000000008152600401610f5690612044565b60405180910390fd5b505092915050565b610f6f6115ce565b60007f30644e72e131a029b85045b68181585d97816a916871ca8d3c208c16d87cfd47905060008360000151148015610fac575060008360200151145b15610fd0576040518060400160405280600081526020016000815250915050611007565b604051806040016040528084600001518152602001828560200151610ff59190612093565b8361100091906120c4565b8152509150505b919050565b600080600467ffffffffffffffff81111561102a57611029611777565b5b60405190808252806020026020018201604052801561106357816020015b6110506115ce565b8152602001906001900390816110485790505b5090506000600467ffffffffffffffff81111561108357611082611777565b5b6040519080825280602002602001820160405280156110bc57816020015b6110a961162c565b8152602001906001900390816110a15790505b5090508a826000815181106110d4576110d3611d68565b5b602002602001018190525088826001815181106110f4576110f3611d68565b5b6020026020010181905250868260028151811061111457611113611d68565b5b6020026020010181905250848260038151811061113457611133611d68565b5b6020026020010181905250898160008151811061115457611153611d68565b5b6020026020010181905250878160018151811061117457611173611d68565b5b6020026020010181905250858160028151811061119457611193611d68565b5b602002602001018190525083816003815181106111b4576111b3611d68565b5b60200260200101819052506111c982826111d9565b9250505098975050505050505050565b6000815183511461121f576040517f08c379a000000000000000000000000000000000000000000000000000000000815260040161121690612144565b60405180910390fd5b60008351905060006006826112349190612164565b905060008167ffffffffffffffff81111561125257611251611777565b5b6040519080825280602002602001820160405280156112805781602001602082028036833780820191505090505b50905060005b83811015611505578681815181106112a1576112a0611d68565b5b6020026020010151600001518260006006846112bd9190612164565b6112c79190611e80565b815181106112d8576112d7611d68565b5b6020026020010181815250508681815181106112f7576112f6611d68565b5b6020026020010151602001518260016006846113139190612164565b61131d9190611e80565b8151811061132e5761132d611d68565b5b60200260200101818152505085818151811061134d5761134c611d68565b5b60200260200101516000015160006002811061136c5761136b611d68565b5b60200201518260026006846113819190612164565b61138b9190611e80565b8151811061139c5761139b611d68565b5b6020026020010181815250508581815181106113bb576113ba611d68565b5b6020026020010151600001516001600281106113da576113d9611d68565b5b60200201518260036006846113ef9190612164565b6113f99190611e80565b8151811061140a57611409611d68565b5b60200260200101818152505085818151811061142957611428611d68565b5b60200260200101516020015160006002811061144857611447611d68565b5b602002015182600460068461145d9190612164565b6114679190611e80565b8151811061147857611477611d68565b5b60200260200101818152505085818151811061149757611496611d68565b5b6020026020010151602001516001600281106114b6576114b5611d68565b5b60200201518260056006846114cb9190612164565b6114d59190611e80565b815181106114e6576114e5611d68565b5b60200260200101818152505080806114fd90611dc6565b915050611286565b5061150e611652565b6000602082602086026020860160086107d05a03fa9050806000810361153057fe5b5080611571576040517f08c379a0000000000000000000000000000000000000000000000000000000008152600401611568906121f2565b60405180910390fd5b60008260006001811061158757611586611d68565b5b602002015114159550505050505092915050565b60405180606001604052806115ae6115ce565b81526020016115bb61162c565b81526020016115c86115ce565b81525090565b604051806040016040528060008152602001600081525090565b6040518060600160405280600390602082028036833780820191505090505090565b6040518060800160405280600490602082028036833780820191505090505090565b604051806040016040528061163f611674565b815260200161164c611674565b81525090565b6040518060200160405280600190602082028036833780820191505090505090565b6040518060400160405280600290602082028036833780820191505090505090565b6000604051905090565b600080fd5b600080fd5b600080fd5b60006101e082840312156116c6576116c56116aa565b5b81905092915050565b6000819050919050565b6116e2816116cf565b81146116ed57600080fd5b50565b6000813590506116ff816116d9565b92915050565b6000806040838503121561171c5761171b6116a0565b5b600083013567ffffffffffffffff81111561173a576117396116a5565b5b611746858286016116af565b9250506020611757858286016116f0565b9150509250929050565b600080fd5b6000601f19601f8301169050919050565b7f4e487b7100000000000000000000000000000000000000000000000000000000600052604160045260246000fd5b6117af82611766565b810181811067ffffffffffffffff821117156117ce576117cd611777565b5b80604052505050565b60006117e1611696565b90506117ed82826117a6565b919050565b600067ffffffffffffffff82111561180d5761180c611777565b5b602082029050919050565b600080fd5b600061183061182b846117f2565b6117d7565b9050806020840283018581111561184a57611849611818565b5b835b81811015611873578061185f88826116f0565b84526020840193505060208101905061184c565b5050509392505050565b600082601f83011261189257611891611761565b5b600261189f84828561181d565b91505092915050565b600067ffffffffffffffff8211156118c3576118c2611777565b5b602082029050919050565b60006118e16118dc846118a8565b6117d7565b905080604084028301858111156118fb576118fa611818565b5b835b818110156119245780611910888261187d565b8452602084019350506040810190506118fd565b5050509392505050565b600082601f83011261194357611942611761565b5b60026119508482856118ce565b91505092915050565b600067ffffffffffffffff82111561197457611973611777565b5b602082029050602081019050919050565b600061199861199384611959565b6117d7565b905080838252602082019050602084028301858111156119bb576119ba611818565b5b835b818110156119e457806119d088826116f0565b8452602084019350506020810190506119bd565b5050509392505050565b600082601f830112611a0357611a02611761565b5b8135611a13848260208601611985565b91505092915050565b60008060008060006101408688031215611a3957611a386116a0565b5b6000611a478882890161187d565b9550506040611a588882890161192e565b94505060c0611a698882890161187d565b93505061010086013567ffffffffffffffff811115611a8b57611a8a6116a5565b5b611a97888289016119ee565b925050610120611aa9888289016116f0565b9150509295509295909350565b60008115159050919050565b611acb81611ab6565b82525050565b6000602082019050611ae66000830184611ac2565b92915050565b600060208284031215611b0257611b016116a0565b5b6000611b10848285016116f0565b91505092915050565b611b22816116cf565b82525050565b604082016000820151611b3e6000850182611b19565b506020820151611b516020850182611b19565b50505050565b600060029050919050565b600081905092915050565b6000819050919050565b6000611b838383611b19565b60208301905092915050565b6000602082019050919050565b611ba581611b57565b611baf8184611b62565b9250611bba82611b6d565b8060005b83811015611beb578151611bd28782611b77565b9650611bdd83611b8f565b925050600181019050611bbe565b505050505050565b608082016000820151611c096000850182611b9c565b506020820151611c1c6040850182611b9c565b50505050565b60006101c082019050611c386000830187611b28565b611c456040830186611bf3565b611c5260c0830185611bf3565b611c60610140830184611bf3565b95945050505050565b600073ffffffffffffffffffffffffffffffffffffffff82169050919050565b6000611c9482611c69565b9050919050565b611ca481611c89565b82525050565b6000602082019050611cbf6000830184611c9b565b92915050565b600082825260208201905092915050565b7f4f6e6c792061646d696e2063616e2073657420766572696669636174696f6e2060008201527f6b65797300000000000000000000000000000000000000000000000000000000602082015250565b6000611d32602483611cc5565b9150611d3d82611cd6565b604082019050919050565b60006020820190508181036000830152611d6181611d25565b9050919050565b7f4e487b7100000000000000000000000000000000000000000000000000000000600052603260045260246000fd5b7f4e487b7100000000000000000000000000000000000000000000000000000000600052601160045260246000fd5b6000611dd1826116cf565b91507fffffffffffffffffffffffffffffffffffffffffffffffffffffffffffffffff8203611e0357611e02611d97565b5b600182019050919050565b600080fd5b600080fd5b600080fd5b60008083356001602003843603038112611e3a57611e39611e0e565b5b80840192508235915067ffffffffffffffff821115611e5c57611e5b611e13565b5b602083019250604082023603831315611e7857611e77611e18565b5b509250929050565b6000611e8b826116cf565b9150611e96836116cf565b9250828201905080821115611eae57611ead611d97565b5b92915050565b7f76657269666965722d6261642d696e7075740000000000000000000000000000600082015250565b6000611eea601283611cc5565b9150611ef582611eb4565b602082019050919050565b60006020820190508181036000830152611f1981611edd565b9050919050565b7f76657269666965722d6774652d736e61726b2d7363616c61722d6669656c6400600082015250565b6000611f56601f83611cc5565b9150611f6182611f20565b602082019050919050565b60006020820190508181036000830152611f8581611f49565b9050919050565b7f70616972696e672d6d756c2d6661696c65640000000000000000000000000000600082015250565b6000611fc2601283611cc5565b9150611fcd82611f8c565b602082019050919050565b60006020820190508181036000830152611ff181611fb5565b9050919050565b7f70616972696e672d6164642d6661696c65640000000000000000000000000000600082015250565b600061202e601283611cc5565b915061203982611ff8565b602082019050919050565b6000602082019050818103600083015261205d81612021565b9050919050565b7f4e487b7100000000000000000000000000000000000000000000000000000000600052601260045260246000fd5b600061209e826116cf565b91506120a9836116cf565b9250826120b9576120b8612064565b5b828206905092915050565b60006120cf826116cf565b91506120da836116cf565b92508282039050818111156120f2576120f1611d97565b5b92915050565b7f70616972696e672d6c656e677468732d6661696c656400000000000000000000600082015250565b600061212e601683611cc5565b9150612139826120f8565b602082019050919050565b6000602082019050818103600083015261215d81612121565b9050919050565b600061216f826116cf565b915061217a836116cf565b9250828202612188816116cf565b9150828204841483151761219f5761219e611d97565b5b5092915050565b7f70616972696e672d6f70636f64652d6661696c65640000000000000000000000600082015250565b60006121dc601583611cc5565b91506121e7826121a6565b602082019050919050565b6000602082019050818103600083015261220b816121cf565b905091905056fea264697066735822122087dd4f6af3143513c43c631730ff63603916e8537148c553d2c1e9e0a4f8d1e564736f6c63430008110033",
  "immutableReferences": {},
  "source": "// SPDX-License-Identifier: GPL-3.0\npragma solidity ^0.8.0;\n\nimport {Pairing, G1Point, G2Point, VerifyingKey, Proof} from './pairing.sol';\n\ncontract verifierZKSNARK {\n    using Pairing for *;\n    address public admin;\n    VerifyingKey[3] public vk;\n\n    constructor(){\n        admin = msg.sender;\n    }\n\n    function setVerifyingKey(VerifyingKey calldata _vKey, uint index) external {\n        require(msg.sender==admin,\"Only admin can set verification keys\");\n        // Alpha\n        vk[index].alpha1.X = _vKey.alpha1.X;\n        vk[index].alpha1.Y = _vKey.alpha1.Y;\n        for (uint j = 0; j < 2; j++) {\n            // Beta\n            vk[index].beta2.X[j] = _vKey.beta2.X[j];\n            vk[index].beta2.Y[j] = _vKey.beta2.Y[j];\n            // Gamma\n            vk[index].gamma2.X[j] = _vKey.gamma2.X[j];\n            vk[index].gamma2.Y[j] = _vKey.gamma2.Y[j];\n            // Delta\n            vk[index].delta2.X[j] = _vKey.delta2.X[j];\n            vk[index].delta2.Y[j] = _vKey.delta2.Y[j];\n        }\n        for (uint j = 0; j < _vKey.IC.length; j++) {\n            // IC\n            vk[index].IC.push(G1Point(_vKey.IC[j].X, _vKey.IC[j].Y));\n        }\n    }\n\n    // function verifyingKey() internal pure returns (VerifyingKey memory vk) {    \n    // }\n\n    function verify(uint[] memory input, Proof memory proof, uint vkIndex) internal view returns (uint) {\n        uint256 snark_scalar_field = 21888242871839275222246405745257275088548364400416034343698204186575808495617;\n        // VerifyingKey memory vk = verifyingKey();\n        require(input.length + 1 == vk[vkIndex].IC.length,\"verifier-bad-input\");\n        // Compute the linear combination vk_x\n        G1Point memory vk_x = G1Point(0, 0);\n        for (uint i = 0; i < input.length; i++) {\n            require(input[i] < snark_scalar_field,\"verifier-gte-snark-scalar-field\");\n            vk_x = Pairing.addition(vk_x, Pairing.scalar_mul(vk[vkIndex].IC[i + 1], input[i]));\n        }\n        vk_x = Pairing.addition(vk_x, vk[vkIndex].IC[0]);\n        if (!Pairing.pairingProd4(\n            Pairing.negate(proof.A), proof.B,\n            vk[vkIndex].alpha1, vk[vkIndex].beta2,\n            vk_x, vk[vkIndex].gamma2,\n            proof.C, vk[vkIndex].delta2\n        )) return 1;\n        return 0;\n    }\n    /// @return r  bool true if proof is valid\n    function verifyProof(\n            uint[2] memory a,\n            uint[2][2] memory b,\n            uint[2] memory c,\n            uint[] memory input,\n            uint vkIndex\n        ) public view returns (bool r) {\n        Proof memory proof;\n        proof.A = G1Point(a[0], a[1]);\n        proof.B = G2Point([b[0][0], b[0][1]], [b[1][0], b[1][1]]);\n        proof.C = G1Point(c[0], c[1]);\n    \n        if (verify(input, proof, vkIndex) == 0) {\n            return true;\n        } else {\n            return false;\n        }\n    }\n}",
  "sourcePath": "/Users/hafizadnanhussain/Desktop/e-voting/spin/BCSVoting/contracts/verifier_zkSNARK.sol",
  "compiler": {
    "name": "solc",
    "version": "0.8.17+commit.8df45f5f.Emscripten.clang"
  },
  "schemaVersion": "3.4.11",
  "updatedAt": "2023-01-09T17:46:56.689Z",
  "devdoc": {
    "kind": "dev",
    "methods": {
      "verifyProof(uint256[2],uint256[2][2],uint256[2],uint256[],uint256)": {
        "returns": {
          "r": " bool true if proof is valid"
        }
      }
    },
    "version": 1
  },
  "userdoc": {
    "kind": "user",
    "methods": {},
    "version": 1
  }
}